:100000000C9462000C948A000C948A000C948A0070
:100010000C948A000C948A000C948A000C948A0038
:100020000C948A000C948A000C948A000C948A0028
:100030000C948A000C948A000C948A000C948A0018
:100040000C94AD040C948A000C947B040C9455041D
:100050000C948A000C948A000C948A000C948A00F8
:100060000C948A000C948A000000000024002700F1
:100070002A0000000000250028002B0000000000DE
:1000800023002600290004040404040404040202DA
:100090000202020203030303030301020408102007
:1000A0004080010204081020010204081020000012
:1000B0000008000201000003040700000000000027
:1000C0000000F70411241FBECFEFD8E0DEBFCDBF84
:1000D00011E0A0E0B1E0ECEBFDE002C005900D9274
:1000E000A635B107D9F722E0A6E5B1E001C01D921F
:1000F000A431B207E1F710E0C2E6D0E004C02197D6
:10010000FE010E94D606C136D107C9F70E944105FB
:100110000C94DC060C940000FC01538D448D252FBB
:1001200030E0842F90E0821B930B541710F0CF9691
:10013000089501970895FC01918D828D981761F0C3
:10014000A28DAE0FBF2FB11D5D968C91928D9F5FDA
:100150009F73928F90E008958FEF9FEF0895FC01B9
:10016000918D828D981731F0828DE80FF11D858D6C
:1001700090E008958FEF9FEF0895FC01918D228DFF
:10018000892F90E0805C9F4F821B91098F73992784
:100190000895FC01A48DA80FB92FB11DA35ABF4F1C
:1001A0002C91848D90E001968F739927848FA68976
:1001B000B7892C93A089B1898C91837080648C93CA
:1001C000938D848D981306C00288F389E02D808179
:1001D0008F7D80830895EF92FF920F931F93CF93AB
:1001E000DF93EC0181E0888F9B8D8C8D98131AC072
:1001F000E889F989808185FF15C09FB7F894EE8959
:10020000FF896083E889F9898081837080648083B5
:100210009FBF81E090E0DF91CF911F910F91FF9000
:10022000EF900895F62E0B8D10E00F5F1F4F0F73A8
:100230001127E02E8C8D8E110CC00FB607FCFACF63
:10024000E889F989808185FFF5CFCE010E94C90038
:10025000F1CFEB8DEC0FFD2FF11DE35AFF4FF08234
:100260009FB7F8940B8FEA89FB8980818062CFCF9A
:10027000CF93DF93EC01888D8823B9F0AA89BB89DD
:10028000E889F9898C9185FD03C0808186FD0DC0C8
:100290000FB607FCF7CF8C9185FFF2CF808185FFE9
:1002A000EDCFCE010E94C900E9CFDF91CF91089533
:1002B0008FE591E00E94BD0021E0892B09F420E048
:1002C000822F089580E090E0892B29F00E94580148
:1002D00081110C9400000895AF92BF92CF92DF92EB
:1002E000EF92FF920F931F93CF93DF936C017B01EB
:1002F0008B01040F151FEB015E01AE18BF08C0177C
:10030000D10759F06991D601ED91FC910190F081EE
:10031000E02DC6010995892B79F7C501DF91CF91B1
:100320001F910F91FF90EF90DF90CF90BF90AF9013
:100330000895833081F028F4813099F08230A9F05B
:1003400008958730A9F08830C9F08430B1F48091E5
:1003500080008F7D03C0809180008F778093800024
:10036000089584B58F7784BD089584B58F7DFBCFC4
:100370008091B0008F778093B00008958091B00095
:100380008F7DF9CF1F93CF93DF93282F30E0F901B2
:10039000E255FF4F8491F901E656FF4FD491F901E0
:1003A000EA57FF4FC491CC23A9F0162F81110E9468
:1003B0009901EC2FF0E0EE0FFF1FEE58FF4FA591D3
:1003C000B4918FB7F894EC91111108C0D095DE2349
:1003D000DC938FBFDF91CF911F910895DE2BF8CF73
:1003E000CF93DF9390E0FC01E656FF4F24918A57AC
:1003F0009F4FFC0184918823D1F090E0880F991FD2
:10040000FC01E859FF4FA591B491FC01EE58FF4F54
:10041000C591D49161110EC09FB7F8948C91E22FD1
:10042000E0958E238C932881E223E8839FBFDF91A0
:10043000CF9108958FB7F894EC91E22BEC938FBF96
:10044000F6CF3FB7F89480915B0190915C01A09149
:100450005D01B0915E0126B5A89B05C02F3F19F044
:100460000196A11DB11D3FBFBA2FA92F982F882734
:10047000BC01CD01620F711D811D911D42E0660F0F
:10048000771F881F991F4A95D1F708958F929F92E1
:10049000AF92BF92CF92DF92EF92FF924B015C013D
:1004A0000E9421026B017C010E9421026C197D09CE
:1004B0008E099F09683E734081059105A8F321E0EC
:1004C000821A9108A108B10888EEC80E83E0D81EF0
:1004D000E11CF11C81149104A104B10429F7FF90DF
:1004E000EF90DF90CF90BF90AF909F908F90089546
:1004F000089590E080E00895CF93DF93EC0160E0F1
:100500008E810E94C20161E08E810E94C20160E082
:100510008E810E94C2018BE891E00197F1F7DF9193
:10052000CF910895CF92DF92EF92FF920F931F9396
:10053000CF93DF936C017C0187E0E80EF11CD0E0E3
:10054000C0E0062F10E0B8010C2E02C0759567952B
:100550000A94E2F76170F70181917F010E94C20164
:100560002196C430D10579F7C601DF91CF911F9153
:100570000F91FF90EF90DF90CF900C947C02CF9280
:10058000DF92EF92FF920F931F93CF93DF93EC01D3
:10059000F62E642F8C810E94C2018D818F3F19F04D
:1005A00060E00E94C2010F2D10E08F8584FF25C0FE
:1005B0006E0187E0C80ED11CF12CE12CB8010E2C85
:1005C00002C0759567950A94E2F76170F601819112
:1005D0006F010E94C201FFEFEF1AFF0A88E0E816E0
:1005E000F10461F7CE01DF91CF911F910F91FF9040
:1005F000EF90DF90CF900C947C02B80184E0759569
:1006000067958A95E1F7CE010E9492026F2DCE0187
:10061000DF91CF911F910F91FF90EF90DF90CF90DE
:100620000C94920240E0682F8CEF91E00C94BF0292
:1006300081E00E9412038BE39FE10197F1F7089597
:10064000CF93DF93823029F490910B0298609093BE
:100650000B0280930F021092100280E4809311022B
:1006600080E18093120280E58093130261E0809123
:1006700000020E94F001809101028F3F19F061E0B9
:100680000E94F00161E0809102020E94F001CCEF33
:10069000D1E09E012C5F314080910B0284FD0BC0A4
:1006A00084E090E021962817390744F461E08E81B8
:1006B0000E94F001EECF88E090E0F4CF8BE39DE064
:1006C0000197F1F760E0809100020E94C20160E0B2
:1006D000809102020E94C201809101028F3F19F0B5
:1006E00060E00E94C20180910B0284FD34C063E08F
:1006F0008CEF91E00E949202CBE4D6E4CE01019708
:10070000F1F763E08CEF91E00E9492022197F1F7FC
:1007100063E08CEF91E00E94920283E592E0019702
:10072000F1F762E08CEF91E00E94920280910B025F
:1007300080620E94120384E080930C028CE00E948D
:1007400012030E94180382E080930D0286E0DF917D
:10075000CF910C94120380620E9412038BE496E402
:100760000197F1F780910B0280620E94120383E5EA
:1007700092E00197F1F780910B0280620E941203D0
:10078000D5CF41E00E94BF0281E090E00895FB01D7
:1007900001900020E9F73197AF01461B570BDC01B0
:1007A000ED91FC910280F381E02D09948F929F924C
:1007B000AF92BF92EF92FF920F931F93CF93DF936D
:1007C000CDB7DEB7A1970FB6F894DEBF0FBECDBF91
:1007D0007C01FA01CB0119A2223008F42AE08E0133
:1007E0000F5D1F4F822E912CB12CA12CBF01A501B2
:1007F00094010E94B406F901CA016A300CF5605DEB
:10080000D8016E938D01232B242B252B79F790E0B3
:1008100080E0109721F0BD01C7010E94C703A19697
:100820000FB6F894DEBF0FBECDBFDF91CF911F9101
:100830000F91FF90EF90BF90AF909F908F90089591
:10084000695CDECFCF92DF92EF92FF920F931F93FE
:10085000CF93DF93EC016A017B01E881F98101907C
:10086000F081E02D6DE209958C0144275527BA01EE
:100870004C195D096E097F092AE0CE010E94D6035A
:10088000800F911FDF91CF911F910F91FF90EF90FB
:10089000DF90CF900895AB01770F660B770B77FD54
:1008A0000C9422042AE00C94D6031F920F920FB6E8
:1008B0000F9211242F933F934F935F936F937F93E6
:1008C0008F939F93AF93BF93EF93FF938FE591E047
:1008D0000E94C900FF91EF91BF91AF919F918F91BD
:1008E0007F916F915F914F913F912F910F900FBE2C
:1008F0000F901F9018951F920F920FB60F92112410
:100900002F938F939F93EF93FF93E0916F01F0915B
:1009100070018081E0917501F091760182FD1BC02C
:100920009081809178018F5F8F7320917901821778
:1009300041F0E0917801F0E0E15AFE4F958F80930D
:100940007801FF91EF919F918F912F910F900FBEA2
:100950000F901F9018958081F4CF1F920F920FB6C1
:100960000F9211242F933F938F939F93AF93BF9335
:100970008091570190915801A0915901B0915A016D
:100980003091560123E0230F2D3758F50196A11D14
:10099000B11D209356018093570190935801A09365
:1009A0005901B0935A0180915B0190915C01A09133
:1009B0005D01B0915E010196A11DB11D80935B01A7
:1009C00090935C01A0935D01B0935E01BF91AF91E4
:1009D0009F918F913F912F910F900FBE0F901F907D
:1009E000189526E8230F0296A11DB11DD2CFEFE581
:1009F000F1E01382128288EE93E0A0E0B0E08483FD
:100A00009583A683B78384E091E09183808385EC0E
:100A100090E09587848784EC90E09787868780ECC8
:100A200090E0918B808B81EC90E0938B828B82ECB9
:100A300090E0958B848B86EC90E0978B868B118E63
:100A4000128E138E148EECEFF1E01382128286E187
:100A500091E0918380838CE084838FEF85838BE0AA
:100A6000868387E0878386E0808785E0818784E0CE
:100A700082871386148615861686178681E00C9465
:100A80002003789484B5826084BD84B5816084BD80
:100A900085B5826085BD85B5816085BD80916E001C
:100AA000816080936E00109281008091810082604D
:100AB000809381008091810081608093810080918A
:100AC00080008160809380008091B1008460809379
:100AD000B1008091B00081608093B00080917A0075
:100AE000846080937A0080917A00826080937A009B
:100AF00080917A00816080937A0080917A0080688A
:100B000080937A001092C10082E00E94200361E08D
:100B100081E00E94F00161E082E00E94F00161E06A
:100B200083E00E94F00161E088E00E94F00160E053
:100B30008AE00E94F00160E089E00E94F0016EE12D
:100B400071E08CEF91E00E94C70367E271E08CEFE7
:100B500091E00E94C70368EE73E080E090E00E949D
:100B6000460295E4A92EC8EBD0E004EA10E020E9A3
:100B7000E22E20E0F22E30E0C32E30E0D32E0E9491
:100B80001803A0927C0080917A00806480937A00A0
:100B900080917A0086FDFCCF80907800909079005B
:100BA000B4018CEF91E00E944B0484EF881681E041
:100BB00098060CF4C3C061E082E00E94C20164E6C2
:100BC00070E080E090E00E9446020E94180360E31B
:100BD00071E08CEF91E00E94C70364EF71E080E068
:100BE00090E00E944602E8EE8E16E3E09E060CF4CA
:100BF0009FC061E082E00E94C20164E670E080E094
:100C000090E00E9446020E94180369E371E08CEFB5
:100C100091E00E94C70364EF71E080E090E00E94E1
:100C2000460260E082E00E94C20164E670E080E07B
:100C300090E00E944602FE018491F801B490F70111
:100C40009490992009F489C081110E949901E92D9D
:100C5000F0E0EE0FFF1FE458FF4FA591B4918C9187
:100C6000B82291E080E009F490E0892E982EE0917E
:100C70000F02E23008F074C0E150F0E0E450FE4FA3
:100C800084898F5F80680E941203B4018CEF91E029
:100C90000E944B04A401092C000C660B770B2AE080
:100CA0008FE591E00E94D6036AE471E08FE591E060
:100CB0000E94C703892881F50E94180361E088E03B
:100CC0000E94C20164EF71E080E090E00E94460261
:100CD000E0910F02E43008F045C0E150F0E0E4504C
:100CE000FE4F84898F5F80680E9412036DE471E07B
:100CF0008CEF91E00E94C70361E082E00E94C20194
:100D000064E670E080E090E00E94460264EF71E0EB
:100D100080E090E00E944602C114D10409F42FCF74
:100D20000E945801882309F42ACF0E94000027CF8F
:100D3000F5EF8F16F1E09F060CF073CF61E082E0D3
:100D40000E94C20164E670E080E090E00E944602EA
:100D50000E94180362E471E05ACF912C812C87CF56
:100D6000E1E08BCFE3E0BACFA1E21A2EAA1BBB1BB6
:100D7000FD010DC0AA1FBB1FEE1FFF1FA217B30767
:100D8000E407F50720F0A21BB30BE40BF50B661F7D
:100D9000771F881F991F1A9469F760957095809541
:100DA00090959B01AC01BD01CF010895EE0FFF1F8F
:0C0DB0000590F491E02D0994F894FFCF19
:100DBC0000000000EB006C018C003801BD009B00B2
:100DCC00AF0000000000C1036C0179027802454CB1
:100DDC004543545249430056454849434C4520002D
:100DEC0054454D50203335430054454D502034303C
:100DFC00430054454D50203230000D0A004443202E
:060E0C004D4F544F52004F
:00000001FF
